:020000040000FA
:06000000A9EF03F012005D
:020006000000F8
:060008004DEF02F01200B2
:02000E001200DE
:060018003CEF02F01200B3
:02001E00F926C1
:10002000AD0C010C600C930C030C810C0E0C5B0CE2
:10003000F926020C030C030C030C040C040C050C35
:10004000050C606FD8906037000ED8B0E828FA6EC3
:100050005A0E6025D8B0FA2AF96E780C780C780C14
:10006000780C780C780C780C780C780C780C780C70
:10007000780C780C780C780C780C780C780C780C60
:10008000780C780C780C780C780C780C780C780C50
:10009000780C780C780C780C780C780C780C780C40
:1000A000780C780C780C780C780C780C780C780C30
:1000B000780C780C780C780C780C780C780C780C20
:1000C000780C780C780C780C780C780C780C780C10
:1000D000780C780C780C780C780C780C780C780C00
:1000E000780C780C780C780C780C780C780C780CF0
:1000F000780C780C780C780C780C780C780C780CE0
:10010000780C780C780C780C780C780C780C780CCF
:10011000780C780C780C780C780C780C780C780CBF
:10012000780C780C780C780C780C780C780C780CAF
:10013000780C780C780C780C780C780C780C780C9F
:10014000780C780C780C780C780C780C780C780C8F
:10015000780C780C780C780C780C880C880C880C4F
:10016000880C880C880C880C880C880C880C880CEF
:10017000880C880C880C880C880C880C880C880CDF
:10018000880C880C880C880C880C880C880C880CCF
:10019000880C880C880C880C880C880C880C880CBF
:1001A000880C880C880C880C880C880C880C880CAF
:1001B000880C880C880C880C880C880C880C880C9F
:1001C000880C880C880C880C880C880C880C880C8F
:1001D000880C880C880C880C880C880C880C880C7F
:1001E000880C880C880C880C880C880C880C880C6F
:1001F000880C880C880C880C880C880C880C880C5F
:10020000880C880C880C880C880C880C880C880C4E
:10021000880C880C880C880C880C880C880C880C3E
:10022000880C880C880C880C880C880C880C880C2E
:10023000880C880C880C880C880C880C880C880C1E
:10024000880C880C880C880C880C880C880C880C0E
:10025000880C880C880C880C880C00EE63F0626BAC
:1002600083B035EF01F03AEF01F0000EEE6EEE6E66
:100270004EEF01F0736B000E0FEC00F0EF24EE6E0A
:10028000D8B07383000E18EC00F0EF2473B3E828A5
:10029000EE6E21EC00F0622720EF02F083B253EF04
:1002A00001F058EF01F0000EEE6EEE6E6CEF01F013
:1002B000736B020E0FEC00F0EF24EE6ED8B0738378
:1002C000020E18EC00F0EF2473B3E828EE6E21EC78
:1002D00000F0622720EF02F083B471EF01F076EFB7
:1002E00001F0000EEE6EEE6E8AEF01F0736B040EFD
:1002F0000FEC00F0EF24EE6ED8B07383040E18EC10
:1003000000F0EF2473B3E828EE6E21EC00F06227D2
:1003100020EF02F083B68FEF01F094EF01F0000EB2
:10032000EE6EEE6EA8EF01F0736B060E0FEC00F0B0
:10033000EF24EE6ED8B07383060E18EC00F0EF24B5
:1003400073B3E828EE6E21EC00F0622720EF02F094
:1003500083B8ADEF01F0B2EF01F0000EEE6EEE6E7D
:10036000C6EF01F0736B080E0FEC00F0EF24EE6E99
:10037000D8B07383080E18EC00F0EF2473B3E828AC
:10038000EE6E21EC00F0622720EF02F083BACBEF93
:1003900001F0D0EF01F0000EEE6EEE6EE4EF01F032
:1003A000736B0A0E0FEC00F0EF24EE6ED8B073837F
:1003B0000A0E18EC00F0EF2473B3E828EE6E21EC7F
:1003C00000F0622720EF02F083BCE9EF01F0EEEFCE
:1003D00001F0000EEE6EEE6E02EF02F0736B0C0E8B
:1003E0000FEC00F0EF24EE6ED8B073830C0E18EC17
:1003F00000F0EF2473B3E828EE6E21EC00F06227E2
:1004000020EF02F083BE07EF02F00CEF02F0000EC7
:10041000EE6EEE6E20EF02F0736B0E0E0FEC00F03E
:10042000EF24EE6ED8B073830E0E18EC00F0EF24BC
:1004300073B3E828EE6E21EC00F0622720EF02F0A3
:100440006251800FBE6E1200616B1200000EF36EDF
:1004500000EE00F0020E07D8000EF36E04EE00F07E
:10046000050E01D81200EA6002D0EE6AFCD7F35004
:08047000E9601200EE6AFCD7FE
:08047800D8CFE4FFE0CFE4FF60
:10048000E46EDACFE4FFE652E552E5CFDAFFE5505D
:10049000E5CFE0FFE5CFD8FF1000DACFE4FFE2CFF1
:1004A000DAFFE9CFE4FFEACFE4FFF6CFE4FFF7CFCE
:1004B000E4FFF5CFE4FFF3CFE4FFF4CFE4FFFACF9E
:1004C000E4FF00EE00F0020EE80403E3EECFE4FFE9
:1004D000FBD700EE02F0020EE80403E3EECFE4FFE8
:1004E000FBD7E652F2A40BD0F294F28A100EE66E1D
:1004F000E66A3EEC03F0E552E5522DEC01F0E552E0
:1005000000EE03F0020EE80403E3E5CFEDFFFBD7B6
:1005100000EE01F0020EE80403E3E5CFEDFFFBD7A8
:10052000E5CFFAFFE5CFF4FFE5CFF3FFE5CFF5FF29
:10053000E5CFF7FFE5CFF6FFE5CFEAFFE5CFE9FF2F
:10054000E5CFDAFF110095688C68F26AFC0EE66E62
:1005500076EC03F0E552DF0EE66E5AEC03F0E5525E
:10056000F28EE66891EC03F0E5520A0EE66EE66A5A
:100570000FEC03F0E552E5529E9024EC02F0FFD719
:10058000060EF66E000EF76E000EF86E0001090002
:10059000F5507B6F0900F5507C6F03E17B6701D05C
:1005A0003DD00900F550766F0900F550776F0900CE
:1005B000F550786F09000900F550E96E0900F55013
:1005C000EA6E090009000900F550796F0900F5503D
:1005D0007A6F09000900F6CF7DF0F7CF7EF0F8CFF3
:1005E0007FF076C0F6FF77C0F7FF78C0F8FF000114
:1005F000795302E17A5307E00900F550EE6E79076E
:10060000F8E27A07F9D77DC0F6FF7EC0F7FF7FC01A
:0E061000F8FF00017B07000E7C5BBFD71200D5
:02061E00D9CF32
:10062000E6FFDACFE6FFE1CFD9FFE2CFDAFFE6520D
:10063000E652FC0EDBCF02F0FD0EDBCF03F0060E20
:10064000D89002360336E804FBE102C0DEFF03C0A7
:10065000DDFF010EDB50BE6EDF50E840E8403F0B8F
:10066000300B026ECF0EBD140210BD6EE552E55286
:0C067000E552E5CFDAFFE7CFD9FF12001A
:04067C00D9CFE6FFED
:10068000DACFE6FFE1CFD9FFE2CFDAFFE652E6525A
:10069000FC0EDBCFDEFFDBCFDDFF010EDB50D76EC4
:1006A000DF50D66EE552E552E552E5CFDAFFE7CFEF
:0406B000D9FF12005C
:0C06B400D9CFE6FFDACFE6FFE1CFD9FF97
:1006C000E2CFDAFFFD0EDB507F0BD56ED76AD66A1C
:1006D000F294FD0EDBAE02D0F28A01D0F29AD58EF2
:0C06E000E552E5CFDAFFE7CFD9FF1200AA
:0406EC00D9CFE6FF7D
:1006F000DACFE6FFE1CFD9FFE2CFDAFFFD0EDB5024
:10070000FB0BCA6ECC6A9E92FD0EDBAE02D09D82C0
:1007100001D09D92CA84E552E5CFDAFFE7CFD9FF39
:020720001200C5
:0E072200D9CFE6FFDACFE6FFE1CFD9FFE2CF75
:10073000DAFF0C0EBD129494CA94FD0EDB50CB6E02
:10074000CA84E552E5CFDAFFE7CFD9FF12009494CF
:02075000120095
:0E07520011EE00F021EE00F0F86A019CC0EC00
:0E07600002F007EC00F0A3EC02F0FBD7120051
:020000040030CA
:0100000024DB
:010001000EF0
:010002001EDF
:010003001EDE
:01000500807A
:010006008178
:0100080003F4
:0100090040B6
:01000A0003F2
:01000B006094
:01000C0003F0
:01000D0040B2
:00000001FF
