:020000040000FA
:06000000BDEF03F0120049
:020006000000F8
:0600080061EF02F012009E
:02000E001200DE
:0600180050EF02F012009F
:02001E00F926C1
:10002000570C820C9B0CAD0C020C3C0C690CAE0CFA
:10003000040C370C590C050C770CD20C5C0CF9260F
:10004000010C010C010C010C020C020C020C020C44
:10005000030C030C030C040C040C040C050C606F63
:10006000D8906037000ED8B0E828FA6E760E60257A
:10007000D8B0FA2AF96E880C890C8A0C8B0C8C0C7F
:100080008D0C8E0C8F0C900C910C920C930C940C8C
:10009000950C960C970C970C980C990C9A0C9B0C41
:1000A0009C0C9D0C9E0C9F0CA00CA10CA20CA30CF4
:1000B000A40CA50CA60CA60CA70CA80CA90CAA0CA9
:1000C000AB0CAC0CAD0CAE0CAF0CB00CB10CB20C5C
:1000D000B30CB40CB50CB50CB60CB70CB80CB90C11
:1000E000BA0CBB0CBC0CBD0CBE0CBF0CC00CC10CC4
:1000F000C20CC30CC40CC40CC50CC60CC70CC80C79
:10010000C90CCA0CCB0CCC0CCD0CCE0CCF0CD00C2B
:10011000D10CD20CD30CD30CD40CD50CD60CD70CE0
:10012000D80CD90CDA0CDB0CDC0CDD0CDE0CDF0C93
:10013000E00CE10CE20CE20CE30CE40CE50CE60C48
:10014000E70CE80CE90CEA0CEB0CEC0CED0CEE0CFB
:10015000EF0CF00CF10CF10CF20CF30CF40CF50CB0
:10016000F60CF70CF80CF90CFA0CFB0CFC0CFD0C63
:10017000FE0CFF0C000C000C000C010C020C030C1C
:10018000040C050C060C070C080C090C0A0C0B0CD3
:100190000C0C0D0C0E0C0F0C0F0C100C110C120C87
:1001A000130C140C150C160C170C180C190C1A0C3B
:1001B0001B0C1C0C1D0C1E0C1E0C1F0C200C210CEF
:1001C000220C230C240C250C260C270C280C290CA3
:1001D0002A0C2B0C2C0C2D0C2D0C2E0C2F0C300C57
:1001E000310C320C330C340C350C360C370C380C0B
:1001F000390C3A0C3B0C3C0C3C0C3D0C3E0C3F0CBF
:10020000400C410C420C430C440C450C460C470C72
:10021000480C490C4A0C4B0C4B0C4C0C4D0C4E0C26
:100220004F0C500C510C520C530C540C550C560CDA
:10023000570C580C590C5A0C5A0C5B0C5C0C5D0C8E
:100240005E0C5F0C600C610C620C630C640C650C42
:10025000660C670C680C690C690C6A0C6B0C6C0CF6
:100260006D0C6E0C6F0C700C710C720C730C740CAA
:10027000750C760C770C00EE62F083B042EF01F063
:1002800047EF01F0000EEE6EEE6E5CEF01F0726B68
:10029000000E0FEC00F0EF24EE6ED8B07283000E6B
:1002A0001FEC00F0EF2472B3E828EE6E2FEC00F0A4
:1002B000800FBE6E37EF02F083B261EF01F066EFA0
:1002C00001F0000EEE6EEE6E7BEF01F0726B020E2F
:1002D0000FEC00F0EF24EE6ED8B07283020E1FEC2C
:1002E00000F0EF2472B3E828EE6E2FEC00F0800FE0
:1002F000BE6E37EF02F083B480EF01F085EF01F0BE
:10030000000EEE6EEE6E9AEF01F0726B040E0FECC3
:1003100000F0EF24EE6ED8B07283040E1FEC00F0F4
:10032000EF2472B3E828EE6E2FEC00F0800FBE6E63
:1003300037EF02F083B69FEF01F0A4EF01F0000E5B
:10034000EE6EEE6EB9EF01F0726B060E0FEC00F080
:10035000EF24EE6ED8B07283060E1FEC00F0EF248F
:1003600072B3E828EE6E2FEC00F0800FBE6E37EF10
:1003700002F083B8BEEF01F0C3EF01F0000EEE6EA5
:10038000EE6ED8EF01F0726B080E0FEC00F0EF2468
:10039000EE6ED8B07283080E1FEC00F0EF2472B33B
:1003A000E828EE6E2FEC00F0800FBE6E37EF02F003
:1003B00083BADDEF01F0E2EF01F0000EEE6EEE6EBB
:1003C000F7EF01F0726B0A0E0FEC00F0EF24EE6E07
:1003D000D8B072830A0E1FEC00F0EF2472B3E82845
:1003E000EE6E2FEC00F0800FBE6E37EF02F083BC94
:1003F000FCEF01F001EF02F0000EEE6EEE6E16EF74
:1004000002F0726B0C0E0FEC00F0EF24EE6ED8B021
:1004100072830C0E1FEC00F0EF2472B3E828EE6E2E
:100420002FEC00F0800FBE6E37EF02F083BE1BEFA3
:1004300002F020EF02F0000EEE6EEE6E35EF02F0ED
:10044000726B0E0E0FEC00F0EF24EE6ED8B07283DC
:100450000E0E1FEC00F0EF2472B3E828EE6E2FECC6
:1004600000F0800FBE6E37EF02F0000EBE6E12007D
:10047000616B1200000EF36E00EE00F0020E07D862
:10048000000EF36E04EE00F0050E01D81200EA60D3
:1004900002D0EE6AFCD7F350E9601200EE6AFCD796
:1004A000D8CFE4FFE0CFE4FFE46EDACFE4FFE6521A
:1004B000E552E5CFDAFFE550E5CFE0FFE5CFD8FF25
:1004C0001000DACFE4FFE2CFDAFFE9CFE4FFEACFB2
:1004D000E4FFF6CFE4FFF7CFE4FFF5CFE4FFF3CF7F
:1004E000E4FFF4CFE4FFFACFE4FF00EE00F0020EE9
:1004F000E80403E3EECFE4FFFBD700EE02F0020EC8
:10050000E80403E3EECFE4FFFBD7E652F2A40BD0FE
:10051000F294F28A100EE66EE66A52EC03F0E552AF
:10052000E5523BEC01F0E55200EE03F0020EE80468
:1005300003E3E5CFEDFFFBD700EE01F0020EE80488
:1005400003E3E5CFEDFFFBD7E5CFFAFFE5CFF4FFFF
:10055000E5CFF3FFE5CFF5FFE5CFF7FFE5CFF6FFFA
:10056000E5CFEAFFE5CFE9FFE5CFDAFF11009568B7
:100570008C68F26AFC0EE66E8AEC03F0E552DF0E40
:10058000E66E6EEC03F0E552F28EE668A5EC03F041
:10059000E5520A0EE66EE66A23EC03F0E552E552F8
:0805A0009E9038EC02F0FFD739
:0805A800060EF66E000EF76E60
:1005B000000EF86E00010900F5507A6F0900F55041
:1005C0007B6F03E17A6701D03DD00900F550756F6C
:1005D0000900F550766F0900F550776F09000900A2
:1005E000F550E96E0900F550EA6E090009000900AE
:1005F000F550786F0900F550796F09000900F6CFC2
:100600007CF0F7CF7DF0F8CF7EF075C0F6FF76C0B6
:10061000F7FF77C0F8FF0001785302E1795307E054
:100620000900F550EE6E7807F8E27907F9D77CC03B
:10063000F6FF7DC0F7FF7EC0F8FF00017A07000ECD
:060640007B5BBFD7120036
:0A064600D9CFE6FFDACFE6FFE1CFDF
:10065000D9FFE2CFDAFFE652E652FC0EDBCF02F022
:10066000FD0EDBCF03F0060ED89002360336E80409
:10067000FBE102C0DEFF03C0DDFF010EDB50BE6EFA
:10068000DF50E840E8403F0B300B026ECF0EBD1448
:100690000210BD6EE552E552E552E5CFDAFFE7CF35
:0406A000D9FF12006C
:0C06A400D9CFE6FFDACFE6FFE1CFD9FFA7
:1006B000E2CFDAFFE652E652FC0EDBCFDEFFDBCF05
:1006C000DDFF010EDB50D76EDF50D66EE552E552EE
:0C06D000E552E5CFDAFFE7CFD9FF1200BA
:0406DC00D9CFE6FF8D
:1006E000DACFE6FFE1CFD9FFE2CFDAFFFD0EDB5034
:1006F0007F0BD56ED76AD66AF294FD0EDBAE02D0C0
:10070000F28A01D0F29AD58EE552E5CFDAFFE7CF33
:04071000D9FF1200FB
:0C071400D9CFE6FFDACFE6FFE1CFD9FF36
:10072000E2CFDAFFFD0EDB50FB0BCA6ECC6A9E9265
:10073000FD0EDBAE02D09D8201D09D92CA84E552AF
:0A074000E5CFDAFFE7CFD9FF120082
:06074A00D9CFE6FFDACF73
:10075000E6FFE1CFD9FFE2CFDAFF0C0EBD12949491
:10076000CA94FD0EDB50CB6ECA84E552E5CFDAFFAA
:0A077000E7CFD9FF120094941200A5
:06077A0011EE00F021EE7B
:1007800000F0F86A019CD4EC02F007EC00F0B7EC42
:0607900002F0FBD712008D
:020000040030CA
:0100000024DB
:010001000EF0
:010002001EDF
:010003001EDE
:01000500807A
:010006008178
:0100080003F4
:0100090040B6
:01000A0003F2
:01000B006094
:01000C0003F0
:01000D0040B2
:00000001FF
